:100000000C9462000C948A000C948A000C948A0070
:100010000C948A000C948A000C948A000C948A0038
:100020000C948A000C948A000C948A000C94580951
:100030000C948A000C948A000C948A000C948A0018
:100040000C940E090C948A000C94DC080C94B608ED
:100050000C948A000C948A000C948A000C948A00F8
:100060000C94140A0C948A0000000000240027005D
:100070002A0000000000250028002B0000000008D6
:10008000000201000003040700000000000000005F
:1000900000000000230026002900040404040404D6
:1000A0000404020202020202030303030303010227
:1000B00004081020408001020408102001020408F6
:1000C0001020780B11241FBECFEFD8E0DEBFCDBFCC
:1000D00012E0A0E0B1E0EEE0F9E202C005900D927E
:1000E000AA34B107D9F724E0AAE4B2E001C01D9216
:1000F000AE35B207E1F710E0C2E6D0E004C02197C8
:10010000FE010E947F14C136D107C9F70E94460C38
:100110000C9485140C9400008F929F92AF92BF9222
:10012000FF920F931F93CF93DF93F090E0032BE0A8
:100130002F1508F44CC02091E20308E512E0021BE1
:10014000110927FD1395000F111F000F111F20919A
:10015000E103C8E8D0E0C21BD10927FDD395CC0F3D
:10016000DD1FCC0FDD1F4E010D2E000CAA08BB08B1
:100170009801012E000C440B550B281939094A0926
:100180005B09DC010E94F71124EB30E040E050E015
:100190000E94CD11820E931EA41EB51E8C169D06C4
:1001A0002CF0E801801691060CF4E4012297CC0FA4
:1001B000DD1F2FB7F8948F2D90E0FC01EE0FFF1F8D
:1001C000E80FF91FE554FC4FD283C1832FBFDF91A5
:1001D000CF911F910F91FF90BF90AF909F908F9004
:1001E000089596E0899FD0011124AD51BC4F90969F
:1001F0007C936E935F9791E091969C939197E09199
:100200005004F091510490914F04992339F03097A4
:1002100051F0811108C08091FF030994309719F0C3
:100220005C968C91FACF0895CF92DF92EF92FF9275
:100230000F931F9396E0899FF0011124ED51FC4F1D
:1002400011A2278D30A12130310551F178F02230F3
:10025000310509F451C02330310509F452C01F9112
:100260000F91FF90EF90DF90CF9008956623B9F340
:1002700061E070E00E94F1002FB7F89480910E03C6
:1002800090910F03A0911003B09111032FBF8093A1
:100290003B0490933C04A0933D04B0933E04DFCF15
:1002A0009FB7F894C0900E03D0900F03E090100316
:1002B000F09011039FBF00913B0410913C042091EA
:1002C0003D0430913E04C01AD10AE20AF30A0091BB
:1002D0004D0410914E0430E020E00C151D052E0554
:1002E0003F0550F462E070E01F910F91FF90EF9096
:1002F000DF90CF900C94F1006111B1CF63E070E01A
:10030000F3CF70E060E0F0CF08950895AF92BF9210
:10031000CF92DF92EF92FF920F931F93CF93DF93D1
:100320006C017B018B01040F151FEB015E01AE1800
:10033000BF08C017D10759F06991D601ED91FC9122
:100340000190F081E02DC6010995892B79F7C5014F
:10035000DF91CF911F910F91FF90EF90DF90CF90A1
:10036000BF90AF900895FC01538D448D252F30E050
:10037000842F90E0821B930B541710F0CF960895B2
:1003800001970895FC01918D828D981761F0A28DDF
:10039000AE0FBF2FB11D5D968C91928D9F5F9F73A5
:1003A000928F90E008958FEF9FEF0895FC01918D5B
:1003B000828D981731F0828DE80FF11D858D90E0C8
:1003C00008958FEF9FEF0895FC01918D228D892F65
:1003D00090E0805C9F4F821B91098F73992708954D
:1003E00082E193E00E94E40121E0892B09F420E0FE
:1003F000822F089580E090E0892B29F00E94F0017F
:1004000081110C9400000895FC01A48DA80FB92F50
:10041000B11DA35ABF4F2C91848D90E001968F732C
:100420009927848FA689B7892C93A089B1898C914B
:10043000837080648C93938D848D981306C002889A
:10044000F389E02D80818F7D80830895EF92FF9264
:100450000F931F93CF93DF93EC0181E0888F9B8DE7
:100460008C8D98131AC0E889F989808185FF15C0A1
:100470009FB7F894EE89FF896083E889F9898081C4
:100480008370806480839FBF81E090E0DF91CF9193
:100490001F910F91FF90EF900895F62E0B8D10E0B5
:1004A0000F5F1F4F0F731127E02E8C8D8E110CC024
:1004B0000FB607FCFACFE889F989808185FFF5CF6F
:1004C000CE010E940402F1CFEB8DEC0FFD2FF11D48
:1004D000E35AFF4FF0829FB7F8940B8FEA89FB89AC
:1004E00080818062CFCFCF93DF93EC01888D88230A
:1004F000B9F0AA89BB89E889F9898C9185FD03C087
:10050000808186FD0DC00FB607FCF7CF8C9185FF6B
:10051000F2CF808185FFEDCFCE010E940402E9CFAA
:10052000DF91CF910895833081F028F4813099F0E4
:100530008230A9F008958730A9F08830C9F084305E
:10054000B1F4809180008F7D03C0809180008F770F
:1005500080938000089584B58F7784BD089584B515
:100560008F7DFBCF8091B0008F778093B00008958E
:100570008091B0008F7DF9CFCF93DF93282F30E0AB
:10058000F901E458FF4F8491F901E255FF4FD491EE
:10059000F901E656FF4FC491CC23A1F081110E94CE
:1005A0009302EC2FF0E0EE0FFF1FE057FF4FA591F5
:1005B000B491EC91ED2381E090E009F480E0DF91CB
:1005C000CF91089580E090E0FACF862F0C94BC0282
:1005D0001F93CF93DF93282F30E0F901E458FF4FAA
:1005E0008491F901E255FF4FD491F901E656FF4F8E
:1005F000C491CC23A9F0162F81110E949302EC2FF5
:10060000F0E0EE0FFF1FEE58FF4FA591B4918FB7AA
:10061000F894EC91111108C0D095DE23DC938FBFC4
:10062000DF91CF911F910895DE2BF8CF862F642F95
:100630000C94E802CF93DF9390E0FC01E255FF4F6A
:10064000249186569F4FFC0184918823C9F090E045
:10065000880F991FFC01E859FF4FA591B491FC0147
:10066000EE58FF4FC591D49161110DC09FB7F8941A
:100670008C91209582238C938881282328839FBF87
:10068000DF91CF910895623051F49FB7F8943C9177
:10069000822F809583238C93E8812E2BEFCF8FB709
:1006A000F894EC912E2B2C938FBFEACF862F642FDA
:1006B0000C941A033FB7F8948091FE029091FF02C8
:1006C000A0910003B091010326B5A89B05C02F3F60
:1006D00019F00196A11DB11D3FBFBA2FA92F982F68
:1006E0008827BC01CD01620F711D811D911D42E063
:1006F000660F771F881F991F4A95D1F708958F922B
:100700009F92AF92BF92CF92DF92EF92FF924B01F6
:100710005C010E945A036B017C010E945A036C1910
:100720007D098E099F09683E734081059105A8F3F4
:1007300021E0821A9108A108B10888EEC80E83E072
:10074000D81EE11CF11C81149104A104B10429F705
:10075000FF90EF90DF90CF90BF90AF909F908F90E1
:100760000895089520918B02260F3327331F2132DD
:100770003105ECF42091D402FC0190E080E02430BB
:1007800069F082E00895A0918B022191AC01455956
:100790005D4FA40FB52FB11D2C930196861798F3CA
:1007A00080918B02680F60938B0280E0089581E056
:1007B00008951092D40281E08093D3021092AE0289
:1007C00061E082E10E94E80261E083E10E94E802C8
:1007D000E9EBF0E080818E7F808380818D7F808354
:1007E00088E48093B80085E48093BC000895CF939B
:1007F000DF9391E090936A028823B9F0C091B8002A
:10080000D091BA008091BC008A7B8093BC0060E0EC
:1008100082E10E94E80260E083E10E94E8020E9417
:10082000D903D093BA00C093B800DF91CF91089557
:100830000895E091090380910803E81730F4F0E08F
:10084000E65BFD4F808190E008958FEF9FEF089564
:1008500090910903809108032FEF3FEF981748F418
:10086000E92FF0E0E65BFD4F208130E09F5F909341
:100870000903C90108958091080390910903891B18
:10088000990B0895CF92DF92EF92FF920F931F93EF
:10089000CF93DF937C01CB018A012091DA022223DE
:1008A00089F0EB016B01C40ED51ECC15DD0569F096
:1008B0006991D701ED91FC910190F081E02DC70184
:1008C0000995F3CF642F0E94B203C801DF91CF9145
:1008D0001F910F91FF90EF90DF90CF900895CF93ED
:1008E000DF931F92CDB7DEB769832091DA0222230E
:1008F000F9F020910603203258F021E030E0FC01AD
:100900003383228390E080E00F90DF91CF910895B0
:1009100080910703E82FF0E0E552FD4F9981908325
:100920008F5F809307038093060381E090E0ECCF14
:1009300061E0CE0101960E94B203F7CFCF92DF9221
:10094000EF92FF920F931F93CF93DF93FC01C4812B
:1009500021E02093DA02C093FB0210920703109269
:1009600006038385682B8FEA93E00E946F04D09181
:100970000603D13208F092C00E945A036B017C0139
:100980008091D402811165C082E08093D40281E01D
:100990008093D3028FEF8093D2021092D102D09332
:1009A000D002ABEDB2E0E0EBF2E080E0D81385C01E
:1009B0001092AF028091AF02CC0FC82BC093AF0250
:1009C0008091AE02813009F07CC01092AE020E948C
:1009D0005A036B017C018091AF028093BB00809130
:1009E000D6029091D702A091D802B091D902892B5A
:1009F0008A2B8B2B99F00E945A030091D6021091FA
:100A0000D7022091D8023091D9026C197D098E0944
:100A10009F090617170728073907E0F18091BC00E6
:100A200083FDD9CF85EC8093BC000E945A036B01F3
:100A30007C018091D402823009F445C08091D202B9
:100A40008F3F61F18091D202803241F18091D202D8
:100A500025C08091D6029091D702A091D802B09182
:100A6000D902892B8A2B8B2B09F48ACF0E945A0337
:100A70000091D6021091D7022091D8023091D9026C
:100A80006C197D098E099F09061717072807390772
:100A900008F076CF8091D5020E94F70310920703E9
:100AA000109206031092DA02DF91CF911F910F91FD
:100AB000FF90EF90DF90CF9008959D9191938F5F7D
:100AC00075CF85EEB0CF8091D6029091D702A091DC
:100AD000D802B091D902892B8A2B8B2B09F4A9CF8C
:100AE0000E945A030091D6021091D7022091D80299
:100AF0003091D9026C197D098E099F0906171707D5
:100B00002807390708F095CFC5CF90E080E0089519
:100B1000CF92DF92EF92FF92C0900A03D0900B0326
:100B2000E0900C03F0900D0320E030E040E251E44F
:100B3000C701B6010E949D1260E087FDDFC020E082
:100B400030E040E251E4C701B6010E94FC1387FD8A
:100B50000BC020E030E040EA51E4C701B6010E943A
:100B60009D1260E087FDE4C020E030E040EA51E4FF
:100B7000C701B6010E94FC1387FD0BC020E030E0E6
:100B800040EF51E4C701B6010E949D1260E087FD6D
:100B9000DFC020E030E040EF51E4C701B6010E9421
:100BA000FC1387FD1EC020E030E040E252E4C701A4
:100BB000B6010E949D1287FF14C060E080E10E9490
:100BC000E80260E08FE00E94E80261E08EE00E94AF
:100BD000E80261E08DE0FF90EF90DF90CF900C9401
:100BE000E80220E030E040E252E4C701B6010E9492
:100BF000FC1387FD18C020E030E048E452E4C70150
:100C0000B6010E949D1287FF0EC060E080E10E9445
:100C1000E80261E08FE00E94E80260E08EE00E945E
:100C2000E80260E0D7CF20E030E048E452E4C701BA
:100C3000B6010E94FC1387FD14C020E030E040E7BD
:100C400052E4C701B6010E949D1287FF0AC060E00E
:100C500080E10E94E80261E08FE00E94E80260E02B
:100C6000B5CF20E030E040E752E4C701B6010E9472
:100C7000FC1387FD14C020E030E04CE852E4C701CB
:100C8000B6010E949D1287FF0AC060E080E10E94C9
:100C9000E80261E08FE00E94E80261E0BFCF20E05F
:100CA00030E04CE852E4C701B6010E94FC1387FD16
:100CB00010C020E030E040EA52E4C701B6010E94D3
:100CC0009D1287FF06C060E080E10E94E80261E0BB
:100CD00079CF20E030E040EA52E4C701B6010E943B
:100CE000FC1387FD10C020E030E044EB52E4C70164
:100CF000B6010E949D1287FF06C061E080E10E945C
:100D0000E80260E087CF20E030E044EB52E4C70126
:100D1000B6010E94FC1387FD10C020E030E048ECD3
:100D200052E4C701B6010E949D1287FF06C061E030
:100D300080E10E94E80260E08FCF20E030E048ECE4
:100D400052E4C701B6010E94FC1387FD06C061E0B2
:100D500080E10E94E80260E09DCFFF90EF90DF907D
:100D6000CF900895FB0101900020E9F73197AF0182
:100D7000461B570BDC01ED91FC910280F381E02DC5
:100D800009948F929F92AF92BF92EF92FF920F932E
:100D90001F93CF93DF93CDB7DEB7A1970FB6F8942B
:100DA000DEBF0FBECDBF7C01FA01CB0119A22230FC
:100DB00008F42AE08E010F5D1F4F822E912CB12C7A
:100DC000A12CBF01A50194010E94FF11F901CA01E4
:100DD0006A300CF5605DD8016E938D01232B242BB6
:100DE000252B79F790E080E0109721F0BD01C70135
:100DF0000E94B206A1960FB6F894DEBF0FBECDBF1B
:100E0000DF91CF911F910F91FF90EF90BF90AF9026
:100E10009F908F900895695CDECFBC0182E594E0DD
:100E20000C94B2062F923F924F925F926F927F92F4
:100E30008F929F92AF92BF92CF92DF92EF92FF92EA
:100E40001F93CF93DF93EC016A017B01722EAB01FC
:100E50009601CB01B6010E946E146AE571E0811122
:100E600026C046015701E894B7F82FEF3FEF4FE750
:100E70005FE7C501B4010E946E1481110CC02FEF11
:100E80003FEF4FE75FE7C501B4010E949D126EE599
:100E900071E0181664F02FEF3FEF4FE75FE4C701F2
:100EA000B6010E94FC131816B4F462E671E0CE019C
:100EB000DF91CF911F91FF90EF90DF90CF90BF9087
:100EC000AF909F908F907F906F905F904F903F90EA
:100ED0002F900C94B2062FEF3FEF4FE75FECC70166
:100EE000B6010E949D1287FDE0CF20E030E0A9010D
:100EF000C701B6010E949D12312C212C87FF0DC025
:100F0000E881F9810190F081E02D6DE2CE01099533
:100F10001C01F7FAF094F7F8F09410E060E070E04C
:100F200080E09FE3711641F020E030E040E251E4C0
:100F30000E94A2121F5FF6CFA70196010E943112F4
:100F40002B013C010E941B134B015C012AE0BC01F8
:100F5000A401CE010E94C1067C01E20CF31C112306
:100F6000E1F1C501B4010E944A139B01AC01C30128
:100F7000B2010E9430124B015C01E881F9810190BD
:100F8000F081E02D6EE2CE010995E80EF91E1150B8
:100F900020F120E030E040E251E4C501B4010E94BC
:100FA00001142B013C010E941B134B01B12CA12CFD
:100FB0002AE0B501A401CE010E94C106E80EF91E87
:100FC000C501B4010E944A139B01AC01C301B201E7
:100FD0000E9430124B015C01DACFC701DF91CF9143
:100FE0001F91FF90EF90DF90CF90BF90AF909F90B8
:100FF0008F907F906F905F904F903F902F900895CB
:10100000CF93DF93AB01BC0122E082E193E00E9429
:101010001207EC0166E671E082E193E00E94B206FD
:101020008C0F9D1FDF91CF9108950F931F93CF9346
:101030008C01C62F0E949E046C2F6460C8010E9420
:101040009E046C2F6B7FC8010E949E0483EC90E08D
:101050000197F1F7CF911F910F9108950F931F936F
:10106000CF93DF938C01D62FC42F607F642B0E9417
:10107000150880E1D89FB00111246C2BC801DF91C5
:10108000CF911F910F910C941508CF93DF93CDB79B
:10109000DEB728970FB6F894DEBF0FBECDBF98E03D
:1010A000E8E1F1E0DE01119601900D929A95E1F7E9
:1010B00090915A04961708F46FEF262F30E0220F14
:1010C000331F41E050E04C0F5D1F240F351FF90125
:1010D0006081680F606840E082E594E028960FB672
:1010E000F894DEBF0FBECDBFDF91CF910C942E08D8
:1010F00041E00E942E0881E090E0089585ED809304
:10110000BC008091D6029091D702A091D802B091F4
:10111000D9020796A11DB11D23E0B695A795979515
:1011200087952A95D1F72091BC0024FD03C0109229
:10113000D40208954091D6025091D7026091D8020E
:101140007091D902452B462B472B69F30097A105D7
:10115000B10541F025E32A95F1F700000197A109B7
:10116000B109E1CF8091D5020C94F7031F920F9241
:101170000FB60F9211242F933F934F935F936F936A
:101180007F938F939F93AF93BF93EF93FF9382E1EE
:1011900093E00E940402FF91EF91BF91AF919F9164
:1011A0008F917F916F915F914F913F912F910F9010
:1011B0000FBE0F901F9018951F920F920FB60F92AF
:1011C00011242F938F939F93EF93FF93E09122032A
:1011D000F09123038081E0912803F091290382FD9F
:1011E0001BC0908180912B038F5F8F7320912C0304
:1011F000821741F0E0912B03F0E0EE5EFC4F958FFB
:1012000080932B03FF91EF919F918F912F910F90DE
:101210000FBE0F901F9018958081F4CF1F920F92F0
:101220000FB60F9211242F933F938F939F93AF93F9
:10123000BF9380910E0390910F03A0911003B09182
:1012400011033091FD0223E0230F2D3758F501964D
:10125000A11DB11D2093FD0280930E0390930F03F7
:10126000A0931003B09311038091FE029091FF02AE
:10127000A0910003B09101030196A11DB11D8093BF
:10128000FE029093FF02A0930003B0930103BF916D
:10129000AF919F918F913F912F910F900FBE0F9023
:1012A0001F90189526E8230F0296A11DB11DD2CFDD
:1012B0001F920F920FB60F9211242F933F934F93CB
:1012C0005F936F937F938F939F93AF93BF93CF93CE
:1012D000DF93EF93FF938091FC02C091DF03D0E096
:1012E00087FF24C010928500109284008091FC0238
:1012F0008F5F8093FC028091FC02082E000C990BFA
:101300008C179D0724F48091FC028C30C4F18091ED
:10131000840090918500049680349C4908F47AC03A
:101320008091840090918500049676C08091FC02A3
:10133000082E000C990B8C179D07C4F6E091FC0257
:101340008E2FEE0F990BFC01EE0FFF1FE80FF91F18
:10135000E554FC4F808186FFC9CFE091FC028E2FBF
:10136000EE0F990BFC01EE0FFF1FE80FF91FE5547C
:10137000FC4F808160E08F730E94E802B7CF20911C
:10138000840030918500E091FC028E2FEE0F990BC6
:10139000FC01EE0FFF1FE80FF91FE554FC4F8181A0
:1013A0009281820F931F9093890080938800E0912F
:1013B000FC028E2FEE0F990BFC01EE0FFF1FE80FC2
:1013C000F91FE554FC4F808186FF11C0E091FC02BB
:1013D0008E2FEE0F990BFC01EE0FFF1FE80FF91F88
:1013E000E554FC4F808161E08F730E94E802FF9119
:1013F000EF91DF91CF91BF91AF919F918F917F91AD
:101400006F915F914F913F912F910F900FBE0F9071
:101410001F90189580E49CE9909389008093880040
:101420008FEF8093FC02E3CF1F920F920FB60F92C3
:1014300011242F933F934F935F936F937F938F93D9
:101440009F93AF93BF93EF93FF938091B900887FF1
:10145000803609F44AC0F0F5883209F4A7C018F5BF
:10146000803109F49BC0B8F4882309F4F9C08830AE
:1014700009F494C0FF91EF91BF91AF919F918F912B
:101480007F916F915F914F913F912F910F900FBE80
:101490000F901F901895883109F488C0803251F759
:1014A0008093D20214C0803409F49DC040F480338C
:1014B000B9F38833F9F68093D20285ECB0C0803559
:1014C00009F485C0883509F496C0883499F60E94DD
:1014D0007E08D0CF883909F48CC038F5883729F0D8
:1014E00050F4883611F0803729F683E08093D402D7
:1014F0001092AD0257C0883809F47BC0803919F0CA
:10150000803809F0B7CF8091AD02803208F071C009
:10151000E091AD0281E08E0F8093AD028091BB001F
:10152000F0E0E357FD4F80833DC0803B39F0E0F4AD
:10153000803A09F479C0883A09F09CCF84E080931E
:10154000D40210928C0210928B02E0910403F0916D
:101550000503099580918B0281110FC081E0809372
:101560008B0210926B0209C0803C09F4A6CF883C24
:1015700009F4A3CF883B09F07DCFE0918C0281E094
:101580008E0F80938C02F0E0E559FD4F80818093AF
:10159000BB0090918C0280918B0229C08091AF0298
:1015A0008093BB0085EC8093BC0064CF9091D10206
:1015B0008091D002981758F5E091D10281E08E0F0A
:1015C0008093D102F0E0E055FD4F8081E9CFE091BA
:1015D000D10281E08E0F8093D1028091BB00F0E0B8
:1015E000E055FD4F80839091D1028091D0029817F1
:1015F000C8F285E8D8CFE091D10281E08E0F8093C8
:10160000D1028091BB00F0E0E055FD4F80838091D6
:10161000D30281115CCF81E08093AE0284EA809393
:10162000BC001092D40226CF85EC8093BC001092AF
:10163000D4028091AD02803230F4E091AD02F0E04E
:10164000E357FD4F10826091AD0270E0E09102031C
:10165000F09103038DE892E009951092AD020ACF54
:101660001092D20234CFCF92DF92EF92FF920F937B
:101670001F93E82FF92F05C00150110921093109E5
:1016800061F1908196239417B9F305C001501109B7
:101690002109310911F1908196239413F7CFC12CC0
:1016A000D12CE12CF12C0AC08FEFC81AD80AE80A15
:1016B000F80A0C151D052E053F0579F0808186235B
:1016C000841791F36C2D7D2D8E2D9F2D1F910F91E1
:1016D000FF90EF90DF90CF90089560E070E080E0A1
:1016E00090E01F910F91FF90EF90DF90CF900895C1
:1016F000109215031092140388EE93E0A0E0B0E07E
:101700008093160390931703A0931803B0931903C3
:1017100024E231E0309313032093120325EC30E0F0
:1017200030931F0320931E0324EC30E030932103F9
:101730002093200320EC30E03093230320932203F6
:1017400021EC30E0309325032093240322EC30E099
:10175000309327032093260326EC30E030932903AF
:101760002093280310922B0310922C0310922D0328
:1017700010922E031092B2031092B1038093B30320
:101780009093B403A093B503B093B60386E391E0BE
:101790009093B0038093AF031092550410925404B9
:1017A00082E591E0909353048093520487E2809302
:1017B000560480E180935B0482E080935C04109285
:1017C0005D041092E5031092E9031092E803109271
:1017D000EA0388E491E09093E4038093E303EFEF5E
:1017E000F3E01082148213821582369684E0EB3384
:1017F000F807B9F784E091E090934604809345049C
:1018000080E091E0909348048093470484E08093C3
:10181000490480934A0488E091E0909344048093C3
:1018200043048AE090E090934C0480934B0484EF4F
:1018300091E090934E0480934D04109251041092C5
:10184000500410923F0410924004109241041092F0
:10185000420410924F048091DF038C3098F491E0A1
:10186000980F9093DF038093E00390E0FC01EE0F6C
:10187000FF1FE80FF91FE554FC4F88EB9BE09283B4
:10188000818308958FEF8093E0030895789484B561
:10189000826084BD84B5816084BD85B5826085BD6C
:1018A00085B5816085BD80916E00816080936E00FA
:1018B00010928100809181008260809381008091EC
:1018C000810081608093810080918000816080939D
:1018D00080008091B10084608093B1008091B0005D
:1018E00081608093B00080917A00846080937A0058
:1018F00080917A00826080937A0080917A00816082
:1019000080937A0080917A00806880937A001092A8
:10191000C100E0912203F091230382E08083E091F3
:101920001E03F0911F031082E0912003F091210328
:101930008FEC808310922A03E0912603F091270315
:1019400086E08083E0912403F0912503808180610B
:101950008083E0912403F091250380818860808357
:10196000E0912403F0912503808180688083E091D9
:101970002403F091250380818F7D808310920903D9
:101980001092080310920703109206030E94D903D5
:1019900084E891E0909305038093040385E891E047
:1019A000909303038093020361E082E00E941A0394
:1019B00060E084E00E941A030E94D9031092570449
:1019C00080915C04823018F098E0909357048093E3
:1019D0005A0462E370E080E090E00E947F0360912F
:1019E0005D0482E594E00E949E0468EE73E080E06E
:1019F00090E00E947F0360E382E594E00E94150876
:101A0000CBE4D6E4CE010197F1F760E382E594E000
:101A10000E9415082197F1F760E382E594E00E94A7
:101A2000150883E592E00197F1F760E282E594E022
:101A30000E94150860915704606240E082E594E0DE
:101A40000E942E0884E08093580440E06CE082E518
:101A500094E00E942E0840E061E082E594E00E945C
:101A60002E08CBE3DFE1CE010197F1F782E080930E
:101A7000590440E066E082E594E00E942E0840E0D0
:101A800062E082E594E00E942E082197F1F788E059
:101A900080935D0460E082E594E00E949E04809162
:101AA000E0038C3008F051C061E083E00E941A032B
:101AB0008091E003282F30E0F901EE0FFF1FE20FC5
:101AC000F31FE554FC4F9081907C936090831092BB
:101AD000E1031092E2032CE0622F0E947314829FB4
:101AE000B001112430E020E0AB01420F531FFA0196
:101AF000EE0FFF1FE40FF51FE554FC4F908196FD9C
:101B000016C02F5F3F4F2C30310571F781110FC088
:101B10001092800082E080938100109285001092E4
:101B20008400B19A80916F00826080936F00E09191
:101B3000E0038E2F90E0FC01EE0FFF1FE80FF91F6E
:101B4000E554FC4F80818064808390E080E00E94B7
:101B50008C0061E08DE00E941A0361E08EE00E943B
:101B60001A0361E08FE00E941A0361E080E10E94A5
:101B70001A03212C312C210123944BE3842E912C28
:101B8000A12CB12C81E080934F048FB7F894409141
:101B90000E0350910F0360911003709111038FBFDA
:101BA00080913F0490914004A0914104B09142047F
:101BB000481B590B6A0B7B0B80914B0490914C0492
:101BC000B0E0A0E084179507A607B70708F0C0C1EA
:101BD000C0E080914904C81760F4E0914504F09199
:101BE0004604EC0FF11D62E080810E941A03CF5F72
:101BF000F0CF712C80914A04781608F05FC0072D51
:101C000010E0E0914704F0914804E00FF11F61E01B
:101C100080810E941A03E0914704F0914804E00F8C
:101C2000F11F60E080810E94E802D201C101072C0F
:101C300004C0880F991FAA1FBB1F0A94D2F76C011A
:101C40007C01E094F094612C809149046816F8F4CA
:101C5000C62DD0E0E0914504F0914604EC0FFD1F45
:101C600080810E94BC022496CC0FDD1FCD51DC4F39
:101C7000892B41F4888199818C299D2999838883B6
:101C80006394E2CF888199818E219F21F7CFE091E3
:101C90004704F0914804E00FF11F61E080810E9449
:101CA000E8028091470490914804080F191F60E0F2
:101CB000F80180810E941A0373949CCF03EE13E015
:101CC000E8018F8D98A1892B31F41C8E8FEF9FEF47
:101CD0009E8F8D8F19A22696EFE1F4E0EC17FD0799
:101CE00081F7F12C80914904F81608F053C0E12CDB
:101CF000CF2CD12CCC0CDD1CC60185519C4F6C0126
:101D000020914A04E21608F043C0F6016081718117
:101D10000E2C02C0769567950A94E2F7F29E900128
:101D200011242E0D311DE3EEF3E080E0458D568D3C
:101D30002417350709F42FC38F5F36968A30B1F721
:101D400060FF24C0E3EEF3E090E080E0448D4111B9
:101D500018C0E0914304F0914404E20FF31F408166
:101D600056E0589FF001599FF00D1124ED51FC4FA2
:101D7000448F368F258F10A2178E61E00E941401C8
:101D800005C0019636968A30910501F7E394B8CFE5
:101D9000F394A8CF80E0F80191A19111892F0A5FF7
:101DA0001F4FC017D107B9F79FB7F89440910E03A2
:101DB00050910F0360911003709111039FBF4093E6
:101DC0003F0450934004609341047093420488237D
:101DD00009F4BEC080910404882309F4B9C080913D
:101DE000020490910304019709F0B2C0E091FF034F
:101DF000E111B1C061E082E00E94E80283E290E07C
:101E00000197F1F760E082E00E94E802E2EBF0E087
:101E10006491EEE9F0E08491E82FF0E0EE0FFF1F0F
:101E2000E057FF4F8591949100E412E42FE030E0F9
:101E3000462F0E94330B6B017C01C114D104E104D5
:101E4000F10439F0FFEFCF1ADF0AEF0AFF0A5FE073
:101E5000F52264E670E080E090E00E947F03C70115
:101E6000B601A50194010E94CD11CA01B9010E94D9
:101E70004C1320E030E040EF51E40E94A21220E039
:101E800030E048EC52E40E9401140E941413072E23
:101E9000000C880B990B0E944C139B01AC0160E075
:101EA00070E08CED92E40E9430126B017C01C092D4
:101EB0000A03D0920B03E0920C03F0920D030E94F0
:101EC0008805C701B6010E94000820E030E048EC18
:101ED00052E460910A0370910B0380910C0390917E
:101EE0000D030E949D1260E018160CF446C280E0BB
:101EF0000E94450886E092E00E940D0760E08BE0BA
:101F00000E94450840910A0350910B0360910C0315
:101F100070910D0322E082E594E00E94120782E1B5
:101F200092E00E940D0761E080E00E94450886E192
:101F300092E00E940D0780E090E0892B09F422CE08
:101F40000E94F001882309F41DCE0E9400001ACEE1
:101F500010924F044FCFE352E23208F04BCF0E2ED7
:101F6000000CFF0BEA54F04F0C947F14AE11FA0EE4
:101F7000FA0EFA0EFA0EFA0EFA0EAE11FA0EFA0E6A
:101F8000FA0EFA0EFA0EAE11D80F32107E10CA10E9
:101F900016116211AE11AE11AE11FA0EFA0EFA0E52
:101FA000FA0EFA0EFA0EFA0EAE11AE11AE11AE1115
:101FB00020E030E040EA50E460910A0370910B03A6
:101FC00080910C0390910D030E94FC13C5E0D0E0BA
:101FD00087FD29C061E080E00E94450889E691E024
:101FE0000E940D0760910A0370910B0380910C030E
:101FF00090910D030E9400088AE590E00E948C00F9
:1020000060ED77E080E090E00E947F0390E080E068
:102010000E948C0064EF71E080E090E00E947F03FA
:102020000E948805E7CE61E080E00E9445088AE7CB
:1020300091E00E940D0764EF71E080E090E00E9463
:102040007F0361E080E00E9445088BE891E00E94F8
:102050000D0764EF71E080E090E00E947F0321971C
:1020600011F7C8CE20E030E040E251E460910A036D
:1020700070910B0380910C0390910D030E94FC134F
:10208000C5E0D0E087FD1BC061E080E00E9445080C
:102090008CE991E00E940D0760910A0370910B0397
:1020A00080910C0390910D030E9400088AE590E056
:1020B0000E948C0068E873E180E090E0A5CF61E0C9
:1020C00080E00E9445088AE791E00E940D0764EFD6
:1020D00071E080E090E00E947F0361E080E00E9478
:1020E00045088BE891E00E940D0764EF71E080E005
:1020F00090E00E947F03219711F77CCE20E030E032
:1021000040E751E460910A0370910B0380910C0346
:1021100090910D030E94FC13C5E0D0E087FD1BC029
:1021200061E080E00E9445088EEA91E00E940D0780
:1021300060910A0370910B0380910C0390910D0341
:102140000E9400088AE590E00E948C0060E177E23E
:1021500080E090E059CF61E080E00E9445088AE786
:1021600091E00E940D0764EF71E080E090E00E9432
:102170007F0361E080E00E9445088BE891E00E94C7
:102180000D0764EF71E080E090E00E947F032197EB
:1021900011F730CE20E030E040EA51E460910A03CC
:1021A00070910B0380910C0390910D030E94FC131E
:1021B000C5E0D0E087FD1BC061E080E00E944508DB
:1021C0008FEB91E00E940D0760910A0370910B0361
:1021D00080910C0390910D030E9400088AE590E025
:1021E0000E948C0068E97AE380E090E00DCF61E026
:1021F00080E00E9445088AE791E00E940D0764EFA5
:1022000071E080E090E00E947F0361E080E00E9446
:1022100045088BE891E00E940D0764EF71E080E0D3
:1022200090E00E947F03219711F7E4CD20E030E099
:1022300040EF51E460910A0370910B0380910C030D
:1022400090910D030E94FC13C5E0D0E087FD1BC0F8
:1022500061E080E00E94450881ED91E00E940D0759
:1022600060910A0370910B0380910C0390910D0310
:102270000E9400088AE590E00E948C0060E27EE403
:1022800080E090E0C1CE61E080E00E9445088AE7EE
:1022900091E00E940D0764EF71E080E090E00E9401
:1022A0007F0361E080E00E9445088BE891E00E9496
:1022B0000D0764EF71E080E090E00E947F032197BA
:1022C00011F798CD20E030E044E352E460910A0336
:1022D00070910B0380910C0390910D030E94FC13ED
:1022E000C5E0D0E087FD1BC061E080E00E944508AA
:1022F00083EE91E00E940D0760910A0370910B0339
:1023000080910C0390910D030E9400088AE590E0F3
:102310000E948C0060E375E780E090E075CE61E09C
:1023200080E00E9445088AE791E00E940D0764EF73
:1023300071E080E090E00E947F0361E080E00E9415
:1023400045088BE891E00E940D0764EF71E080E0A2
:1023500090E00E947F03219711F74CCD61E080E06F
:102360000E94450885EF91E00E940D0764E873E044
:1023700080E090E00E947F033DCD80E00E94450810
:1023800087E292E00E940D0761E080E00E9445082C
:1023900088E392E0CECD6170F1CC052E97FB1EF460
:1023A00000940E94E41157FD07D00E94FF1107FC22
:1023B00003D04EF40C94E41150954095309521953E
:1023C0003F4F4F4F5F4F0895909580957095619561
:1023D0007F4F8F4F9F4F08950E942112A59F900D10
:1023E000B49F900DA49F800D911D11240895B7FFF7
:1023F0000C94EC110E94EC11821B930B0895A1E246
:102400001A2EAA1BBB1BFD010DC0AA1FBB1FEE1F6E
:10241000FF1FA217B307E407F50720F0A21BB30BB9
:10242000E40BF50B661F771F881F991F1A9469F735
:1024300060957095809590959B01AC01BD01CF0191
:102440000895A29FB001B39FC001A39F700D811D8D
:102450001124911DB29F700D811D1124911D0895AD
:102460005058BB27AA270E9448120C94C2130E94FE
:10247000B41338F00E94BB1320F039F49F3F19F4D5
:1024800026F40C94B1130EF4E095E7FB0C94AB1317
:10249000E92F0E94D31358F3BA1762077307840712
:1024A000950720F079F4A6F50C94F5130EF4E09559
:1024B0000B2EBA2FA02D0B01B90190010C01CA01FE
:1024C000A0011124FF27591B99F0593F50F4503EA9
:1024D00068F11A16F040A22F232F342F4427585F9B
:1024E000F3CF469537952795A795F0405395C9F7B3
:1024F0007EF41F16BA0B620B730B840BBAF091506B
:10250000A1F0FF0FBB1F661F771F881FC2F70EC009
:10251000BA0F621F731F841F48F4879577956795DC
:10252000B795F7959E3F08F0B0CF9395880F08F0C8
:102530009927EE0F9795879508950E94871308F4C1
:1025400081E008950E94B6120C94C2130E94BB133E
:1025500058F00E94B41340F029F45F3F29F00C9426
:10256000AB1351110C94F6130C94B1130E94D313B6
:1025700068F39923B1F3552391F3951B550BBB27B2
:10258000AA2762177307840738F09F5F5F4F220FF7
:10259000331F441FAA1FA9F335D00E2E3AF0E0E8EE
:1025A00032D091505040E695001CCAF72BD0FE2F38
:1025B00029D0660F771F881FBB1F261737074807CC
:1025C000AB07B0E809F0BB0B802DBF01FF27935884
:1025D0005F4F3AF09E3F510578F00C94AB130C948A
:1025E000F6135F3FE4F3983ED4F3869577956795AD
:1025F000B795F7959F5FC9F7880F911D96958795B9
:1026000097F90895E1E0660F771F881FBB1F6217D7
:1026100073078407BA0720F0621B730B840BBA0B95
:10262000EE1F88F7E09508950E941B136894B1117E
:102630000C94F61308950E94DB1388F09F5798F0CE
:10264000B92F9927B751B0F0E1F0660F771F881FB7
:10265000991F1AF0BA95C9F714C0B13091F00E94D1
:10266000F513B1E008950C94F513672F782F8827A0
:10267000B85F39F0B93FCCF3869577956795B395F8
:10268000D9F73EF490958095709561957F4F8F4F67
:102690009F4F0895E89409C097FB3EF4909580956C
:1026A000709561957F4F8F4F9F4F9923A9F0F92F18
:1026B00096E9BB279395F695879577956795B79596
:1026C000F111F8CFFAF4BB0F11F460FF1BC06F5F7C
:1026D0007F4F8F4F9F4F16C0882311F096E911C08E
:1026E000772321F09EE8872F762F05C0662371F0AF
:1026F00096E8862F70E060E02AF09A95660F771FC3
:10270000881FDAF7880F9695879597F90895990F9E
:102710000008550FAA0BE0E8FEEF16161706E807AB
:10272000F907C0F012161306E407F50798F0621BCC
:10273000730B840B950B39F40A2661F0232B242BA1
:10274000252B21F408950A2609F4A140A6958FEFC0
:10275000811D811D089597F99F6780E870E060E012
:1027600008959FEF80EC089500240A94161617062A
:1027700018060906089500240A9412161306140672
:1027800005060895092E0394000C11F4882352F0D5
:10279000BB0F40F4BF2B11F460FF04C06F5F7F4F8D
:1027A0008F4F9F4F089557FD9058440F551F59F074
:1027B0005F3F71F04795880F97FB991F61F09F3F2E
:1027C00079F087950895121613061406551FF2CF57
:1027D0004695F1DF08C0161617061806991FF1CFA7
:1027E00086957105610508940895E894BB276627CE
:1027F0007727CB0197F908950E94871308F48FEF8C
:1028000008950E9414140C94C2130E94B41338F05B
:102810000E94BB1320F0952311F00C94AB130C9481
:10282000B11311240C94F6130E94D31370F3959FE7
:10283000C1F3950F50E0551F629FF001729FBB27B7
:10284000F00DB11D639FAA27F00DB11DAA1F649F53
:102850006627B00DA11D661F829F2227B00DA11D06
:10286000621F739FB00DA11D621F839FA00D611D8C
:10287000221F749F3327A00D611D231F849F600DAD
:10288000211D822F762F6A2F11249F5750409AF0D6
:10289000F1F088234AF0EE0FFF1FBB1F661F771F62
:1028A000881F91505040A9F79E3F510580F00C942D
:1028B000AB130C94F6135F3FE4F3983ED4F3869584
:1028C00077956795B795F795E7959F5FC1F7FE2BCD
:1028D000880F911D9695879597F908950E94871303
:1028E000880B990B0895991B79E004C0991F9617DE
:1028F00008F0961B881F7A95C9F780950895EE0F0A
:0E290000FF1F0590F491E02D0994F894FFCF8D
:10290E00090A0B0C050607083132334134353642BD
:10291E00373839432A302344000040001400540055
:10292E000000000026028601B3017302E401C20119
:10293E00D601000000006F044204850518043B0414
:10294E00280419040000000056031603E5020000D7
:10295E000000780886018505B1036E616E00696E10
:10296E0066006F7666000D0A005369727669656EB1
:10297E00646F3A2031206C6220002020202020201D
:10298E004572726F722020202020002020496E7325
:10299E007566696369656E74652020005369727689
:1029AE0069656E646F3A20322E356C622000536971
:1029BE00727669656E646F3A2035206C6220005322
:1029CE0069727669656E646F3A203130206C6220D0
:1029DE00005369727669656E646F3A203132206CED
:1029EE006220005369727669656E646F3A203136E3
:1029FE00206C622000456E747261646120496E76AF
:102A0E00616C69646100416C6D6163656E61646FD8
:102A1E003A00252020004465736561207365727647
:102A2E0069723F2020200020436965727265206C18
:102A3E006120546170612000202020202020202061
:0A2A4E00202020202020202000007E
:00000001FF
