:100000000C9462000C948A000C948A000C948A0070
:100010000C948A000C948A000C948A000C948A0038
:100020000C948A000C948A000C948A000C948A0028
:100030000C948A000C948A000C948A000C948A0018
:100040000C9473030C948A000C9441030C941B03CE
:100050000C948A000C948A000C948A000C948A00F8
:100060000C948A000C948A000000000024002700F1
:100070002A0000000000250028002B0000000000DE
:1000800023002600290004040404040404040202DA
:100090000202020203030303030301020408102007
:1000A0004080010204081020010204081020000012
:1000B0000008000201000003040700000000000027
:1000C0000000B90611241FBECFEFD8E0DEBFCDBFC0
:1000D00011E0A0E0B1E0E0E2FEE002C005900D9288
:1000E000A631B107D9F721E0A6E1B1E001C01D9228
:1000F000A03CB207E1F710E0C2E6D0E004C02197CF
:10010000FE010E940807C136D107C9F70E94BD034E
:100110000C940E070C940000AF92BF92CF92DF9226
:10012000EF92FF920F931F93CF93DF936C017B01AC
:100130008B01040F151FEB015E01AE18BF08C0173D
:10014000D10759F06991D601ED91FC910190F081B0
:10015000E02DC6010995892B79F7C501DF91CF9173
:100160001F910F91FF90EF90DF90CF90BF90AF90D5
:100170000895FC01538D448D252F30E0842F90E0AD
:10018000821B930B541710F0CF9608950197089592
:10019000FC01918D828D981761F0A28DAE0FBF2F5B
:1001A000B11D5D968C91928D9F5F9F73928F90E0B1
:1001B00008958FEF9FEF0895FC01918D828D981720
:1001C00031F0828DE80FF11D858D90E008958FEF5D
:1001D0009FEF0895FC01918D228D892F90E0805C26
:1001E0009F4F821B91098F739927089583E291E0B5
:1001F0000E94EA0021E0892B09F420E0822F089573
:1002000080E090E0892B29F00E94F60081110C9487
:1002100000000895FC01A48DA80FB92FB11DA35AA9
:10022000BF4F2C91848D90E001968F739927848F16
:10023000A689B7892C93A089B1898C918370806439
:100240008C93938D848D981306C00288F389E02DDA
:1002500080818F7D80830895EF92FF920F931F938B
:10026000CF93DF93EC0181E0888F9B8D8C8D981369
:100270001AC0E889F989808185FF15C09FB7F89475
:10028000EE89FF896083E889F989808183708064C1
:1002900080839FBF81E090E0DF91CF911F910F910C
:1002A000FF90EF900895F62E0B8D10E00F5F1F4F1B
:1002B0000F731127E02E8C8D8E110CC00FB607FC2A
:1002C000FACFE889F989808185FFF5CFCE010E94B8
:1002D0000A01F1CFEB8DEC0FFD2FF11DE35AFF4F1B
:1002E000F0829FB7F8940B8FEA89FB898081806246
:1002F000CFCFCF93DF93EC01888D8823B9F0AA8903
:10030000BB89E889F9898C9185FD03C0808186FDD0
:100310000DC00FB607FCF7CF8C9185FFF2CF80811F
:1003200085FFEDCFCE010E940A01E9CFDF91CF9189
:100330000895833081F028F4813099F08230A9F05B
:1003400008958730A9F08830C9F08430B1F48091E5
:1003500080008F7D03C0809180008F778093800024
:10036000089584B58F7784BD089584B58F7DFBCFC4
:100370008091B0008F778093B00008958091B00095
:100380008F7DF9CFCF93DF93282F30E0F901E2552D
:10039000FF4F8491F901E656FF4FD491F901EA57D6
:1003A000FF4FC491CC23A1F081110E949901EC2F41
:1003B000F0E0EE0FFF1FE458FF4FA591B491EC91D0
:1003C000ED2381E090E009F480E0DF91CF91089582
:1003D00080E090E0FACF1F93CF93DF93282F30E097
:1003E000F901E255FF4F8491F901E656FF4FD49190
:1003F000F901EA57FF4FC491CC23A9F0162F8111C0
:100400000E949901EC2FF0E0EE0FFF1FEE58FF4F16
:10041000A591B4918FB7F894EC91111108C0D095C3
:10042000DE23DC938FBFDF91CF911F910895DE2BE8
:10043000F8CFCF93DF9390E0FC01E656FF4F249175
:100440008A579F4FFC0184918823D1F090E0880F58
:10045000991FFC01E859FF4FA591B491FC01EE589A
:10046000FF4FC591D49161110EC09FB7F8948C9144
:10047000E22FE0958E238C932881E223E8839FBFAF
:10048000DF91CF9108958FB7F894EC91E22BEC9324
:100490008FBFF6CF3FB7F89480911B0190911C015C
:1004A000A0911D01B0911E0126B5A89B05C02F3F4C
:1004B00019F00196A11DB11D3FBFBA2FA92F982F8A
:1004C0008827BC01CD01620F711D811D911D42E085
:1004D000660F771F881F991F4A95D1F708958F924D
:1004E0009F92AF92BF92CF92DF92EF92FF924B0119
:1004F0005C010E944A026B017C010E944A026C1955
:100500007D098E099F09683E734081059105A8F316
:1005100021E0821A9108A108B10888EEC80E83E094
:10052000D81EE11CF11C81149104A104B10429F727
:10053000FF90EF90DF90CF90BF90AF909F908F9003
:1005400008958F929F92AF92BF920F931F93CF9374
:10055000DF93CDB7DEB7A1970FB6F894DEBF0FBE1D
:10056000CDBF19A2423008F44AE08E010F5D1F4F43
:10057000842E912CB12CA12CA50194010E94E60699
:10058000E62FB901CA01EA3044F5E05DD801EE93E7
:100590008D01232B242B252B79F790E080E01097F9
:1005A00069F0FD0101900020E9F73197AF014A1B86
:1005B0005B0BBD0183E291E00E948C00A1960FB617
:1005C000F894DEBF0FBECDBFDF91CF911F910F9189
:1005D000BF90AF909F908F900895E95CD7CFCF9256
:1005E000DF92EF92FF92CF93DF9397FF1BC06B01D7
:1005F0007C016DE283E291E00E942C01EC01662710
:100600007727CB016C197D098E099F094AE00E946A
:10061000A1028C0F9D1FDF91CF91FF90EF90DF9093
:10062000CF9008954AE0DF91CF91FF90EF90DF9057
:10063000CF900C94A1021F920F920FB60F9211242B
:100640002F933F934F935F936F937F938F939F93DA
:10065000AF93BF93EF93FF9383E291E00E940A016F
:10066000FF91EF91BF91AF919F918F917F916F918A
:100670005F914F913F912F910F900FBE0F901F9060
:1006800018951F920F920FB60F9211242F938F93EC
:100690009F93EF93FF93E0913301F09134018081B8
:1006A000E0913901F0913A0182FD1BC09081809167
:1006B0003C018F5F8F7320913D01821741F0E091E3
:1006C0003C01F0E0ED5DFE4F958F80933C01FF9182
:1006D000EF919F918F912F910F900FBE0F901F90D0
:1006E00018958081F4CF1F920F920FB60F921124AC
:1006F0002F933F938F939F93AF93BF938091170155
:1007000090911801A0911901B0911A013091160130
:1007100023E0230F2D3758F50196A11DB11D20931D
:1007200016018093170190931801A0931901B093BB
:100730001A0180911B0190911C01A0911D01B091A3
:100740001E010196A11DB11D80931B0190931C01F8
:10075000A0931D01B0931E01BF91AF919F918F9106
:100760003F912F910F900FBE0F901F90189526E884
:10077000230F0296A11DB11DD2CF789484B582605B
:1007800084BD84B5816084BD85B5826085BD85B535
:10079000816085BD80916E00816080936E001092B3
:1007A000810080918100826080938100809181002E
:1007B00081608093810080918000816080938000BF
:1007C0008091B10084608093B1008091B00081601D
:1007D0008093B00080917A00846080937A00809149
:1007E0007A00826080937A0080917A0081608093A1
:1007F0007A0080917A00806880937A001092C1001C
:10080000E0913301F091340182E08083E0912F0187
:10081000F09130011082E0913101F09132018FECC2
:10082000808310923B01E0913701F091380186E01E
:100830008083E0913501F091360180818061808371
:10084000E0913501F0913601808188608083E091EC
:100850003501F0913601808180688083E091350117
:10086000F091360180818F7D8083C3E061E08C2F21
:100870000E941902CF5FCD30C9F760E08DE00E9481
:10088000190260E08EE00E94190260E08FE00E9491
:10089000190260E080E10E94190260ED77E080E0DB
:1008A00090E00E946F0200E010E08DE00E94C20123
:1008B00021E0892B09F420E0209322018EE00E94A0
:1008C000C20121E0892B09F420E0209321018FE06F
:1008D0000E94C20121E0892B09F420E0209320012D
:1008E00080E10E94C20161E0892B09F460E060931D
:1008F0001F0170E090E080E00E94EF026091200113
:1009000070E090E080E00E94EF026091210170E0D1
:1009100090E080E00E94EF026091220170E090E0A0
:1009200080E00E94EF0242E050E062E171E083E289
:1009300091E00E948C0080911F0190912001811113
:10094000C2C080912101911162C1811120C08091AA
:10095000220181111CC0C3E061E08C2F0E94EB01D9
:10096000CF5FCD30C9F762E370E080E090E00E9495
:100970006F02C3E060E08C2F0E94EB01CF5FCD30AF
:10098000C9F762E370E080E090E00E946F0280911E
:10099000210181112CC080912201882341F161E065
:1009A00083E00E94EB0160E084E00E94EB0160E0E4
:1009B00085E00E94EB0160E086E00E94EB0160E0D0
:1009C00087E00E94EB0160E088E00E94EB0160E0BC
:1009D00089E00E94EB0160E08AE00E94EB0160E0A8
:1009E0008BE00E94EB0160E08CE00E94EB018091C3
:1009F0002101882361F180912201811128C061E0E9
:100A000083E00E94EB0161E084E00E94EB0160E082
:100A100085E00E94EB0160E086E00E94EB0160E06F
:100A200087E00E94EB0160E088E00E94EB0160E05B
:100A300089E00E94EB0160E08AE00E94EB0160E047
:100A40008BE00E94EB0160E08CE00E94EB01809162
:100A50002101882361F180912201882341F161E025
:100A600083E00E94EB0161E084E00E94EB0161E021
:100A700085E00E94EB0160E086E00E94EB0160E00F
:100A800087E00E94EB0160E088E00E94EB0160E0FB
:100A900089E00E94EB0160E08AE00E94EB0160E0E7
:100AA0008BE00E94EB0160E08CE00E94EB010115FD
:100AB000110509F4FACE0E94F600882309F4F5CE58
:100AC0000E940000F2CE9111F2CF8091210181119C
:100AD0002CC080912201811128C061E083E00E9436
:100AE000EB0161E084E00E94EB0161E085E00E949F
:100AF000EB0161E086E00E94EB0161E087E00E948B
:100B0000EB0161E088E00E94EB0161E089E00E9476
:100B1000EB0161E08AE00E94EB0160E08BE00E9463
:100B2000EB0160E08CE00E94EB01809121018111DA
:100B30002CC080912201882341F161E083E00E9472
:100B4000EB0161E084E00E94EB0161E085E00E943E
:100B5000EB0161E086E00E94EB0161E087E00E942A
:100B6000EB0161E088E00E94EB0161E089E00E9416
:100B7000EB0161E08AE00E94EB0161E08BE00E9402
:100B8000EB0160E08CE00E94EB0180912101882361
:100B900009F48DCF80912201811189CF61E083E03A
:100BA0000E94EB0161E084E00E94EB0161E085E0DE
:100BB0000E94EB0161E086E00E94EB0161E087E0CA
:100BC0000E94EB0161E088E00E94EB0161E089E0B6
:100BD0000E94EB0161E08AE00E94EB0161E08BE0A2
:100BE0000E94EB0161E08CE00E94EB0164E670E0A2
:100BF00080E090E00E946F0260E08CE00E94EB01D8
:100C000064E670E080E090E00E946F0250CF8111B6
:100C10002CC080912201811128C061E083E00E94F4
:100C2000EB0161E084E00E94EB0161E085E00E945D
:100C3000EB0161E086E00E94EB0160E087E00E944A
:100C4000EB0160E088E00E94EB0160E089E00E9437
:100C5000EB0160E08AE00E94EB0160E08BE00E9423
:100C6000EB0160E08CE00E94EB0180912101811199
:100C70002CC080912201882341F161E083E00E9431
:100C8000EB0161E084E00E94EB0161E085E00E94FD
:100C9000EB0161E086E00E94EB0161E087E00E94E9
:100CA000EB0160E088E00E94EB0160E089E00E94D7
:100CB000EB0160E08AE00E94EB0160E08BE00E94C3
:100CC000EB0160E08CE00E94EB0180912101882320
:100CD00061F180912201811128C061E083E00E94CE
:100CE000EB0161E084E00E94EB0161E085E00E949D
:100CF000EB0161E086E00E94EB0161E087E00E9489
:100D0000EB0161E088E00E94EB0160E089E00E9475
:100D1000EB0160E08AE00E94EB0160E08BE00E9462
:100D2000EB0160E08CE00E94EB01809121018823BF
:100D300009F4BDCE80912201882309F4B8CE61E088
:100D400083E00E94EB0161E084E00E94EB0161E03E
:100D500085E00E94EB0161E086E00E94EB0161E02A
:100D600087E00E94EB0161E088E00E94EB0161E016
:100D70008FCEE3E2F1E01382128288EE93E0A0E0EE
:100D8000B0E084839583A683B78384E091E0918368
:100D9000808385EC90E09587848784EC90E097874A
:100DA000868780EC90E0918B808B81EC90E0938B38
:100DB000828B82EC90E0958B848B86EC90E0978B15
:100DC000868B118E128E138E148E0895A1E21A2E28
:100DD000AA1BBB1BFD010DC0AA1FBB1FEE1FFF1FDF
:100DE000A217B307E407F50720F0A21BB30BE40B2F
:100DF000F50B661F771F881F991F1A9469F7609576
:100E00007095809590959B01AC01BD01CF0108952F
:100E1000EE0FFF1F0590F491E02D0994F894FFCF99
:100E2000000000002C018C00B9007901EA00C80024
:060E3000DC000D0A0000C9
:00000001FF
